:100000000C945D000C9485000C9485000C94850084
:100010000C9485000C9485000C9485000C9485004C
:100020000C9485000C9485000C9485000C9485003C
:100030000C9485000C9485000C9485000C9485002C
:100040000C94B8020C9485000C9428030C940203C1
:100050000C9485000C9485000C9485000C9485000C
:100060000C9485000C9485000000000024002700FB
:100070002A0000000000250028002B0004040404CE
:100080000404040402020202020203030303030342
:10009000010204081020408001020408102001021F
:1000A00004081020000000080002010000030407FB
:1000B00000000000000000005A0311241FBECFEF13
:1000C000D8E0DEBFCDBF11E0A0E0B1E0E6E9FEE0A0
:1000D00002C005900D92AE35B107D9F722E0AEE52A
:1000E000B1E001C01D92A830B207E1F710E0CDE504
:1000F000D0E004C02197FE010E947405CC35D107E1
:10010000C9F70E9487030C9449070C940000E7EBA1
:10011000F0E02491E3EAF0E09491EFE8F0E0E4917C
:10012000EE2309F43BC0222339F1233091F038F457
:100130002130A9F0223001F524B52F7D12C02730DF
:1001400091F02830A1F02430B9F4209180002F7D67
:1001500003C0209180002F77209380000DC024B52C
:100160002F7724BD09C02091B0002F7703C02091C4
:10017000B0002F7D2093B000F0E0EE0FFF1FEE588F
:10018000FF4FA591B4912FB7F894EC91811103C062
:1001900090959E2301C09E2B9C932FBF08958E3077
:1001A00008F08E508770806480937C0080917A0084
:1001B000806480937A0080917A0086FDFCCF8091E4
:1001C00078002091790090E0922B08953FB7F89441
:1001D0008091630190916401A0916501B0916601E5
:1001E00026B5A89B05C02F3F19F00196A11DB11D92
:1001F0003FBFBA2FA92F982F8827820F911DA11DCD
:10020000B11DBC01CD0142E0660F771F881F991F09
:100210004A95D1F708958F929F92AF92BF92CF9255
:10022000DF92EF92FF926B017C010E94E6004B018E
:100230005C01C114D104E104F104F1F00E94E60074
:10024000DC01CB0188199909AA09BB09883E9340B2
:10025000A105B10570F321E0C21AD108E108F10847
:1002600088EE880E83E0981EA11CB11CC114D10435
:10027000E104F10419F7DDCFFF90EF90DF90CF900C
:10028000BF90AF909F908F900895CF92DF92EF92A2
:10029000FF920F931F93CF93DF936C017A018B0131
:1002A000C0E0D0E0CE15DF0589F0D8016D918D0159
:1002B000D601ED91FC910190F081E02DC6010995E8
:1002C000892B11F47E0102C02196ECCFC701DF918A
:1002D000CF911F910F91FF90EF90DF90CF900895F5
:1002E000FC01918D828D981761F0828DDF01A80F3E
:1002F000B11D5D968C91928D9F5F9F73928F90E060
:1003000008958FEF9FEF0895FC01918D828D9817CE
:1003100031F0828DE80FF11D858D90E008958FEF0B
:100320009FEF0895FC01918D228D892F90E0805CD4
:100330009F4F821B91098F739927089587E691E05B
:100340000E94920121E0892B09F420E0822F089578
:10035000FC01848DDF01A80FB11DA35ABF4F2C9162
:10036000848D90E001968F739927848FA689B78931
:100370002C93A089B1898C9180648C93938D848D0A
:10038000981306C00288F389E02D80818F7D8083D9
:100390000895EF92FF920F931F93CF93DF93EC0199
:1003A00081E0888F9B8D8C8D981305C0E889F98931
:1003B000808185FD24C0F62E0B8D10E00F5F1F4F4E
:1003C0000F731127E02E8C8DE8120CC00FB607FCBE
:1003D000FACFE889F989808185FFF5CFCE010E94A7
:1003E000A801F1CF8B8DFE01E80FF11DE35AFF4FFD
:1003F000F0820B8FEA89FB898081806207C0EE89D9
:10040000FF896083E889F98980818064808381E045
:1004100090E0DF91CF911F910F91FF90EF900895A1
:10042000CF93DF93EC01888D8823C9F0EA89FB899B
:10043000808185FD05C0A889B9898C9186FD0FC092
:100440000FB607FCF5CF808185FFF2CFA889B98967
:100450008C9185FFEDCFCE010E94A801E7CFDF91FF
:10046000CF91089580E090E0892B29F00E949E01B1
:1004700081110C9400000895009769F0FC0101902F
:100480000020E9F73197AF01481B590BBC0187E603
:1004900091E00C94450180E090E008958F929F9246
:1004A000AF92BF920F931F93CF93DF93CDB7DEB779
:1004B000A1970FB6F894DEBF0FBECDBF19A2423090
:1004C00008F44AE08E010F5D1F4F842E912CA12C61
:1004D000B12CA50194010E945205E62FB901CA0171
:1004E00001501109EA3014F4E05D01C0E95CD80163
:1004F000EC93232B242B252B61F7C8010E943C028F
:10050000A1960FB6F894DEBF0FBECDBFDF91CF919D
:100510001F910F91BF90AF909F908F900895CF92B1
:10052000DF92EF92FF92CF93DF936B017C01E0911A
:100530006701F09168010190F081E02D6DE287E69E
:1005400091E00995EC0166277727CB016C197D09AD
:100550008E099F094AE00E944E028C0F9D1FDF9179
:10056000CF91FF90EF90DF90CF9008950E944407C5
:100570001F920F920FB60F9211242F933F938F93D8
:100580009F93AF93BF9380915F0190916001A09181
:100590006101B091620130915E0123E0230F2D379C
:1005A00020F40196A11DB11D05C026E8230F029677
:1005B000A11DB11D20935E0180935F0190936001A6
:1005C000A0936101B09362018091630190916401F5
:1005D000A0916501B09166010196A11DB11D8093A6
:1005E000630190936401A0936501B0936601BF918C
:1005F000AF919F918F913F912F910F900FBE0F90D0
:100600001F9018951F920F920FB60F9211242F93DF
:100610003F934F935F936F937F938F939F93AF938A
:10062000BF93EF93FF9387E691E00E94A801FF91AB
:10063000EF91BF91AF919F918F917F916F915F915A
:100640004F913F912F910F900FBE0F901F901895D3
:100650001F920F920FB60F9211242F938F939F9397
:10066000EF93FF93E0917701F09178018081E09121
:100670007D01F0917E0182FD12C090818091800108
:100680008F5F8F7320918101821751F0E09180017B
:10069000F0E0E959FE4F958F8093800101C0808181
:1006A000FF91EF919F918F912F910F900FBE0F901F
:1006B0001F901895E7E6F1E01382128288EE93E02E
:1006C000A0E0B0E084839583A683B78384E091E0C3
:1006D0009183808385EC90E09587848784EC90E01B
:1006E0009787868780EC90E0918B808B81EC90E0FF
:1006F000938B828B82EC90E0958B848B86EC90E0E0
:10070000978B868B118E128E138E148E089578948B
:1007100084B5826084BD84B5816084BD85B5826006
:1007200085BD85B5816085BD80916E0081608093B7
:100730006E00109281008091810082608093810020
:100740008091810081608093810080918000816030
:10075000809380008091B10084608093B10080918B
:10076000B00081608093B00080917A0084608093B3
:100770007A0080917A00826080937A0080917A007A
:10078000816080937A0080917A00806880937A00FB
:100790001092C100E0917701F091780182E08083AE
:1007A000E0917301F09174011082E0917501F09174
:1007B00076018FEC808310927F01E0917B01F091B4
:1007C0007C0186E08083E0917901F0917A0180815B
:1007D00080618083E0917901F0917A018081886065
:1007E0008083E0917901F0917A0180818068808333
:1007F000E0917901F0917A0180818F7D80838EE58F
:100800009BE4A8ECBEE38093040290930502A093BE
:100810000602B0930702E3EAF0E02491EFE8F0E08B
:100820008491882399F090E0880F991FFC01E85982
:10083000FF4FA591B491FC01EE58FF4F8591949123
:100840008FB7F894EC91E22BEC938FBF68EB7BE0D1
:1008500080E090E00E940B0180E191E00E943C0268
:100860008FE00E94CF00BC01990F880B990B97FF76
:1008700003C00E948F0203C04AE00E944E028BE137
:1008800091E00E943C028EE00E94CF00BC01990FD3
:10089000880B990B97FF03C00E948F0203C04AE0A8
:1008A0000E944E0287E291E00E943C028FE00E948B
:1008B000CF006C018EE00E94CF007C01B60180E089
:1008C00090E00E941B064B015C01B70180E090E0C4
:1008D0000E941B069B01AC01C501B4010E947A0570
:1008E00020910402309105024091060250910702C6
:1008F0000E94D2066B017C014B015C019B01AC01A3
:100900000E943F07882319F085E391E01AC0260171
:100910003701E89477F82FEF3FEF4FE75FE7C30128
:10092000B2010E943F0781110FC02FEF3FEF4FE749
:100930005FE7C301B2010E94E70518162CF489E3B2
:1009400091E00E943C027DC02FEF3FEF4FE75FE454
:10095000C701B6010E94CD0618161CF48DE391E084
:10096000F0CF2FEF3FEF4FE75FECC701B6010E94DA
:10097000E70587FDF3CF20E030E0A901C701B6010C
:100980000E94E70587FF11C0E0916701F0916801BF
:100990000190F081E02D6DE287E691E00995460136
:1009A0005701B7FAB094B7F8B0942AE037ED43EAAC
:1009B0005BE3C501B4010E947B054B015C010E9411
:1009C000EC056B017C010E941B069B01AC01C5017B
:1009D000B4010E947A054B015C014AE0C701B601EF
:1009E0000E944E0281E491E00E943C0220E030E04F
:1009F00040E251E4C501B4010E94D2064B015C0102
:100A00000E94EC056B01E12CF12C4AE0C701B60114
:100A10000E944E02C701B6010E941B069B01AC0159
:100A2000C501B4010E947A0520E030E040E251E4C3
:100A30000E94D2060E94EC0580E090E04AE00E940D
:100A40004E0283E491E00E943C0286E491E00E9421
:100A50003C028FE00E94CF007C018EE00E94CF001C
:100A6000B701681B790B072E000C880B990B97FFB9
:100A700003C00E948F0203C04AE00E944E0283E43A
:100A800091E00E943C0280E00E94870060E971E0F2
:100A900080E090E00E940B0181E00E9487000E94AC
:100AA0003202D4CEA1E21A2EAA1BBB1BFD010DC03F
:100AB000AA1FBB1FEE1FFF1FA217B307E407F5070E
:100AC00020F0A21BB30BE40BF50B661F771F881FEA
:100AD000991F1A9469F760957095809590959B0180
:100AE000AC01BD01CF010895EE0FFF1F0590F491F9
:100AF000E02D09945058BB27AA270E9492050C9418
:100B000093060E94850638F00E948C0620F039F486
:100B10009F3F19F426F40C9482060EF4E095E7FB4F
:100B20000C947C06E92F0E94A40658F3BA176207BA
:100B300073078407950720F079F4A6F50C94C60690
:100B40000EF4E0950B2EBA2FA02D0B01B9019001E8
:100B50000C01CA01A0011124FF27591B99F0593F2C
:100B600050F4503E68F11A16F040A22F232F342F74
:100B70004427585FF3CF469537952795A795F040C2
:100B80005395C9F77EF41F16BA0B620B730B840BD7
:100B9000BAF09150A1F0FF0FBB1F661F771F881F8F
:100BA000C2F70EC0BA0F621F731F841F48F48795E7
:100BB00077956795B795F7959E3F08F0B0CF9395D9
:100BC000880F08F09927EE0F9795879508950E9452
:100BD000580608F481E008950E94AC0688F09F57FB
:100BE00098F0B92F9927B751B0F0E1F0660F771F51
:100BF000881F991F1AF0BA95C9F714C0B13091F047
:100C00000E94C606B1E008950C94C606672F782F9F
:100C10008827B85F39F0B93FCCF38695779567950B
:100C2000B395D9F73EF490958095709561957F4F77
:100C30008F4F9F4F0895E89409C097FB3EF490951D
:100C40008095709561957F4F8F4F9F4F9923A9F0A5
:100C5000F92F96E9BB279395F69587957795679534
:100C6000B795F111F8CFFAF4BB0F11F460FF1BC078
:100C70006F5F7F4F8F4F9F4F16C0882311F096E90B
:100C800011C0772321F09EE8872F762F05C06623B9
:100C900071F096E8862F70E060E02AF09A95660F72
:100CA000771F881FDAF7880F9695879597F908952B
:100CB000990F0008550FAA0BE0E8FEEF161617066D
:100CC000E807F907C0F012161306E407F50798F0D5
:100CD000621B730B840B950B39F40A2661F0232BEE
:100CE000242B252B21F408950A2609F4A140A6956A
:100CF0008FEF811D811D089597F99F6780E870E04F
:100D000060E008959FEF80EC089500240A94161681
:100D1000170618060906089500240A9412161306E9
:100D2000140605060895092E0394000C11F4882377
:100D300052F0BB0F40F4BF2B11F460FF04C06F5F93
:100D40007F4F8F4F9F4F089557FD9058440F551F69
:100D500059F05F3F71F04795880F97FB991F61F03D
:100D60009F3F79F087950895121613061406551FB4
:100D7000F2CF4695F1DF08C0161617061806991F20
:100D8000F1CF86957105610508940895E894BB2715
:100D900066277727CB0197F908950E94580608F433
:100DA0008FEF08950E94E5060C9493060E94850635
:100DB00038F00E948C0620F0952311F00C947C06EC
:100DC0000C94820611240C94C7060E94A40670F3AA
:100DD000959FC1F3950F50E0551F629FF001729FE0
:100DE000BB27F00DB11D639FAA27F00DB11DAA1FEF
:100DF000649F6627B00DA11D661F829F2227B00D3C
:100E0000A11D621F739FB00DA11D621F839FA00DC6
:100E1000611D221F749F3327A00D611D231F849F16
:100E2000600D211D822F762F6A2F11249F5750406D
:100E30009AF0F1F088234AF0EE0FFF1FBB1F661FE8
:100E4000771F881F91505040A9F79E3F510580F0B1
:100E50000C947C060C94C7065F3FE4F3983ED4F3F1
:100E6000869577956795B795F795E7959F5FC1F755
:100E7000FE2B880F911D9695879597F908950E94EE
:100E80005806880B990B089581E090E0F8940C9433
:060E90004907F894FFCFB2
:100E960000000000C90145019201700184011002A1
:100EA60048616C6C5F6F75743A20000948616C6C20
:100EB6005F7265663A20000A43757272656E742029
:100EC60069733A20006E616E00696E66006F766621
:100ED600002E000D0A005261772043757272656E0E
:0E0EE600742056616C75652069733A20000017
:00000001FF
