:100000000C945D000C9485000C9485000C94850084
:100010000C9485000C9485000C9485000C9485004C
:100020000C9485000C9485000C9485000C9485003C
:100030000C9485000C9485000C9485000C9485002C
:100040000C94DF020C9485000C944F030C9429034C
:100050000C9485000C9485000C9485000C9485000C
:100060000C9485000C9485000000000024002700FB
:100070002A0000000000250028002B0004040404CE
:100080000404040402020202020203030303030342
:10009000010204081020408001020408102001021F
:1000A00004081020000000080002010000030407FB
:1000B0000000000000000000810311241FBECFEFEC
:1000C000D8E0DEBFCDBF11E0A0E0B1E0E4E0F0E1B8
:1000D00002C005900D92A039B107D9F722E0A0E93E
:1000E000B1E001C01D92AA33B207E1F710E0CDE5FF
:1000F000D0E004C02197FE010E94B205CC35D107A3
:10010000C9F70E94AE030C9400080C9400008E30D6
:1001100008F08E508770806480937C0080917A0014
:10012000806480937A0080917A0086FDFCCF809174
:1001300078002091790090E0922B08953FB7F894D1
:100140008091950190919601A0919701B0919801AD
:1001500026B5A89B05C02F3F19F00196A11DB11D22
:100160003FBFBA2FA92F982F8827820F911DA11D5D
:10017000B11DBC01CD0142E0660F771F881F991F9A
:100180004A95D1F70895CF92DF92EF92FF920F93A5
:100190001F93CF93DF936C017A018B01C0E0D0E015
:1001A000CE15DF0589F0D8016D918D01D601ED9155
:1001B000FC910190F081E02DC6010995892B11F485
:1001C0007E0102C02196ECCFC701DF91CF911F9134
:1001D0000F91FF90EF90DF90CF900895FC01918DEB
:1001E000828D981761F0828DDF01A80FB11D5D9699
:1001F0008C91928D9F5F9F73928F90E008958FEF07
:100200009FEF0895FC01918D828D981731F0828DBA
:10021000E80FF11D858D90E008958FEF9FEF089511
:10022000FC01918D228D892F90E0805C9F4F821B75
:1002300091098F739927089589E991E00E9410012F
:1002400021E0892B09F420E0822F0895FC01848DA0
:10025000DF01A80FB11DA35ABF4F2C91848D90E0F0
:1002600001968F739927848FA689B7892C93A089CB
:10027000B1898C9180648C93938D848D981306C082
:100280000288F389E02D80818F7D80830895EF922D
:10029000FF920F931F93CF93DF93EC0181E0888F40
:1002A0009B8D8C8D981305C0E889F989808185FD27
:1002B00024C0F62E0B8D10E00F5F1F4F0F73112718
:1002C000E02E8C8DE8120CC00FB607FCFACFE8893F
:1002D000F989808185FFF5CFCE010E942601F1CFFB
:1002E0008B8DFE01E80FF11DE35AFF4FF0820B8F5B
:1002F000EA89FB898081806207C0EE89FF8960837B
:10030000E889F98980818064808381E090E0DF91D1
:10031000CF911F910F91FF90EF900895CF93DF93AE
:10032000EC01888D8823C9F0EA89FB89808185FDED
:1003300005C0A889B9898C9186FD0FC00FB607FC4E
:10034000F5CF808185FFF2CFA889B9898C9185FF8F
:10035000EDCFCE010E942601E7CFDF91CF91089526
:1003600080E090E0892B29F00E941C0181110C94FF
:1003700000000895009769F0FC0101900020E9F762
:100380003197AF01481B590BBC0189E991E00C94EE
:10039000C30080E090E008958F929F92AF92BF9249
:1003A0000F931F93CF93DF93CDB7DEB7A1970FB60F
:1003B000F894DEBF0FBECDBF19A2423008F44AE068
:1003C0008E010F5D1F4F842E912CA12CB12CA50105
:1003D00094010E949005E62FB901CA01015011094C
:1003E000EA3014F4E05D01C0E95CD801EC93232B02
:1003F000242B252B61F7C8010E94BA01A1960FB6E4
:10040000F894DEBF0FBECDBFDF91CF911F910F914A
:10041000BF90AF909F908F9008954F925F926F9290
:100420007F928F929F92AF92BF92CF92DF92EF9284
:10043000FF926B017C019B01AC010E94F6078823AF
:1004400019F081E591E01AC046015701E894B7F828
:100450002FEF3FEF4FE75FE7C501B4010E94F607BA
:10046000811110C02FEF3FEF4FE75FE7C501B401E7
:100470000E942506181634F485E591E00E94BA0121
:100480007C0188C02FEF3FEF4FE75FE4C701B60163
:100490000E94840718161CF489E591E0EFCF2FEF36
:1004A0003FEF4FE75FECC701B6010E94250687FDCD
:1004B000F3CF20E030E0A901C701B6010E94250674
:1004C00087FF11C0E0919901F0919A010190F081AC
:1004D000E02D6DE289E991E009955C01F7FAF0946D
:1004E000F7F8F09402C0A12CB12C2AE037ED43EAD2
:1004F0005BE3C701B6010E94B9052B013C010E94D4
:10050000A3066B017C010E94D2069B01AC01C301D2
:10051000B2010E94B8052B013C014AE0C701B601B7
:100520000E94CC017C01EA0CFB1C8DE591E00E944D
:10053000BA01E80EF91E20E030E040E251E4C301C8
:10054000B2010E9489072B013C010E94A3064B01C6
:10055000A12CB12C4AE0C501B4010E94CC01E80EE7
:10056000F91EC501B4010E94D2069B01AC01C30172
:10057000B2010E94B80520E030E040E251E40E9460
:1005800089070E94A30680E090E04AE00E94CC0127
:10059000E80EF91E8FE591E00E94BA018E0D9F1DB5
:1005A000FF90EF90DF90CF90BF90AF909F908F9093
:1005B0007F906F905F904F9008950E94FB071F926D
:1005C0000F920FB60F9211242F933F938F939F9307
:1005D000AF93BF938091910190919201A09193016B
:1005E000B09194013091900123E0230F2D3720F436
:1005F0000196A11DB11D05C026E8230F0296A11D7D
:10060000B11D209390018093910190939201A0934A
:100610009301B09394018091950190919601A091DE
:100620009701B09198010196A11DB11D809395018C
:1006300090939601A0939701B0939801BF91AF91C9
:100640009F918F913F912F910F900FBE0F901F9010
:1006500018951F920F920FB60F9211242F933F936C
:100660004F935F936F937F938F939F93AF93BF93BA
:10067000EF93FF9389E991E00E942601FF91EF91AA
:10068000BF91AF919F918F917F916F915F914F91AA
:100690003F912F910F900FBE0F901F9018951F92B2
:1006A0000F920FB60F9211242F938F939F93EF9376
:1006B000FF93E091A901F091AA018081E091AF013F
:1006C000F091B00182FD12C090818091B2018F5FE4
:1006D0008F732091B301821751F0E091B201F0E0E5
:1006E000E756FE4F958F8093B20101C08081FF9144
:1006F000EF919F918F912F910F900FBE0F901F90B0
:100700001895E9E9F1E01382128288EE93E0A0E007
:10071000B0E084839583A683B78385E491E09183D9
:10072000808385EC90E09587848784EC90E09787C0
:10073000868780EC90E0918B808B81EC90E0938BAE
:10074000828B82EC90E0958B848B86EC90E0978B8B
:10075000868B118E128E138E148E0895789484B524
:10076000826084BD84B5816084BD85B5826085BDAD
:1007700085B5816085BD80916E00816080936E003B
:10078000109281008091810082608093810080912D
:1007900081008160809381008091800081608093DE
:1007A00080008091B10084608093B1008091B0009E
:1007B00081608093B00080917A00846080937A0099
:1007C00080917A00826080937A0080917A008160C3
:1007D00080937A0080917A00806880937A001092EA
:1007E000C10082E18093380281E091E0909337026A
:1007F0008093360280E180933902E091A901F09163
:10080000AA0182E08083E091A501F091A601108207
:10081000E091A701F091A8018FEC80831092B101C3
:10082000E091AD01F091AE0186E08083E091AB01F3
:10083000F091AC01808180618083E091AB01F09107
:10084000AC01808188608083E091AB01F091AC01C4
:10085000808180688083E091AB01F091AC01808160
:100860008F7D8083E2EAF0E02491EEE8F0E084916D
:100870008823C1F090E0880F991FFC01E859FF4FD1
:10088000C591D491FC01EE58FF4FA591B4919FB74B
:10089000F8948881E22FE0958E2388838C91E82359
:1008A000EC939FBFE3EAF0E024914FE8242E40E070
:1008B000342EF1018491882399F090E0880F991FDC
:1008C000FC01E859FF4FA591B491FC01EE58FF4F90
:1008D000859194918FB7F8949C91292B2C938FBF7D
:1008E0000E949E004B015C0128EEC22E23E0D22E16
:1008F000E12CF12C0E949E00DC01CB0188199909A2
:10090000AA09BB09883E9340A105B10558F0F1E062
:10091000CF1AD108E108F10828EE820E23E0921EDA
:10092000A11CB11CC114D104E104F10419F782E641
:1009300091E00E94BA01809138020E948700EC0188
:1009400090913902E0913602F09137029F0180E0E8
:10095000891709F4DCC02C5F3F4FD90114974D91E2
:100960005C914C175D0710F48F5FF2CF882309F478
:10097000D4C024E0829FC00111246F01C80ED91E8B
:100980000497E80FF91FE280F38000811181F601DE
:10099000628173816E197F09072E000C880B990BF9
:1009A0000E94D4064B015C01F60160817181601BDD
:1009B000710B80E090E00E94D2069B01AC01C50162
:1009C000B4010E942A064B015C01BE0180E090E068
:1009D0000E94D2069B01AC01C501B4010E948907A7
:1009E0002B013C01B701FF0C880B990B0E94D40628
:1009F0006B017C01B80180E090E00E94D2069B016F
:100A0000AC01C501B4010E9489079B01AC01C7017B
:100A1000B6010E94B8059B01AC01C301B2010E945E
:100A2000B9050E949C06072E000C880B990B0E94AA
:100A3000D40620E030E040E85DE30E9489070E9490
:100A40000D028AE791E00E94BA0182E10E948700CC
:100A5000BC01990F880B990B0E94D4062BE43CE350
:100A600040EA5BE30E9489070E940D022091000189
:100A7000F1E02F2720930001E7EBF0E09491E3EA07
:100A8000F0E08491F1013491332309F43DC09923BE
:100A900039F1933091F038F49130A9F0923001F5AA
:100AA00094B59F7D12C0973091F09830A1F09430AA
:100AB000B9F4909180009F7D03C0909180009F7752
:100AC000909380000DC094B59F7794BD09C090911C
:100AD000B0009F7703C09091B0009F7D9093B000CD
:100AE000E32FF0E0EE0FFF1FEE58FF4FA591B491FA
:100AF0009FB7F894211104C02C918095822302C0E5
:100B00002C91822B8C939FBF0E94B001E9CE24E0F0
:100B1000829FE00DF11D112434976281738183CF90
:100B2000A1E21A2EAA1BBB1BFD010DC0AA1FBB1FF1
:100B3000EE1FFF1FA217B307E407F50720F0A21B63
:100B4000B30BE40BF50B661F771F881F991F1A94D0
:100B500069F760957095809590959B01AC01BD01FA
:100B6000CF010895EE0FFF1F0590F491E02D099439
:100B70005058BB27AA270E94D0050C944A070E9410
:100B80003C0738F00E94430720F039F49F3F19F4E6
:100B900026F40C9439070EF4E095E7FB0C94330728
:100BA000E92F0E945B0758F3BA176207730784079F
:100BB000950720F079F4A6F50C947D070EF4E095E6
:100BC0000B2EBA2FA02D0B01B90190010C01CA0107
:100BD000A0011124FF27591B99F0593F50F4503EB2
:100BE00068F11A16F040A22F232F342F4427585FA4
:100BF000F3CF469537952795A795F0405395C9F7BC
:100C00007EF41F16BA0B620B730B840BBAF0915073
:100C1000A1F0FF0FBB1F661F771F881FC2F70EC012
:100C2000BA0F621F731F841F48F4879577956795E5
:100C3000B795F7959E3F08F0B0CF9395880F08F0D1
:100C40009927EE0F9795879508950E940F0708F44E
:100C500081E008950E943E060C944A070E944307D3
:100C600058F00E943C0740F029F45F3F29F00C94B3
:100C7000330751110C947E070C9439070E945B07CF
:100C800068F39923B1F3552391F3951B550BBB27BB
:100C9000AA2762177307840738F09F5F5F4F220F00
:100CA000331F441FAA1FA9F335D00E2E3AF0E0E8F7
:100CB00032D091505040E695001CCAF72BD0FE2F41
:100CC00029D0660F771F881FBB1F261737074807D5
:100CD000AB07B0E809F0BB0B802DBF01FF2793588D
:100CE0005F4F3AF09E3F510578F00C9433070C9417
:100CF0007E075F3FE4F3983ED4F38695779567953A
:100D0000B795F7959F5FC9F7880F911D96958795C1
:100D100097F90895E1E0660F771F881FBB1F6217E0
:100D200073078407BA0720F0621B730B840BBA0B9E
:100D3000EE1F88F7E09508950E94A3066894B1110C
:100D40000C947E0708950E94630788F09F5798F0DF
:100D5000B92F9927B751B0F0E1F0660F771F881FC0
:100D6000991F1AF0BA95C9F714C0B13091F00E94DA
:100D70007D07B1E008950C947D07672F782F8827B1
:100D8000B85F39F0B93FCCF3869577956795B39501
:100D9000D9F73EF490958095709561957F4F8F4F70
:100DA0009F4F0895E89409C097FB3EF49095809575
:100DB000709561957F4F8F4F9F4F9923A9F0F92F21
:100DC00096E9BB279395F695879577956795B7959F
:100DD000F111F8CFFAF4BB0F11F460FF1BC06F5F85
:100DE0007F4F8F4F9F4F16C0882311F096E911C097
:100DF000772321F09EE8872F762F05C0662371F0B8
:100E000096E8862F70E060E02AF09A95660F771FCB
:100E1000881FDAF7880F9695879597F90895990FA7
:100E20000008550FAA0BE0E8FEEF16161706E807B4
:100E3000F907C0F012161306E407F50798F0621BD5
:100E4000730B840B950B39F40A2661F0232B242BAA
:100E5000252B21F408950A2609F4A140A6958FEFC9
:100E6000811D811D089597F99F6780E870E060E01B
:100E700008959FEF80EC089500240A941616170633
:100E800018060906089500240A941216130614067B
:100E900005060895092E0394000C11F4882352F0DE
:100EA000BB0F40F4BF2B11F460FF04C06F5F7F4F96
:100EB0008F4F9F4F089557FD9058440F551F59F07D
:100EC0005F3F71F04795880F97FB991F61F09F3F37
:100ED00079F087950895121613061406551FF2CF60
:100EE0004695F1DF08C0161617061806991FF1CFB0
:100EF00086957105610508940895E894BB276627D7
:100F00007727CB0197F908950E940F0708F48FEF18
:100F100008950E949C070C944A070E943C0738F0F1
:100F20000E94430720F0952311F00C9433070C9492
:100F3000390711240C947E070E945B0770F3959F7C
:100F4000C1F3950F50E0551F629FF001729FBB27C0
:100F5000F00DB11D639FAA27F00DB11DAA1F649F5C
:100F60006627B00DA11D661F829F2227B00DA11D0F
:100F7000621F739FB00DA11D621F839FA00D611D95
:100F8000221F749F3327A00D611D231F849F600DB6
:100F9000211D822F762F6A2F11249F5750409AF0DF
:100FA000F1F088234AF0EE0FFF1FBB1F661F771F6B
:100FB000881F91505040A9F79E3F510580F00C9436
:100FC00033070C947E075F3FE4F3983ED4F3869595
:100FD00077956795B795F795E7959F5FC1F7FE2BD6
:100FE000880F911D9695879597F908950E940F0790
:100FF000880B990B089581E090E0F8940C94000818
:04100000F894FFCF92
:10100400011F00D8072800380734009B064400FF5E
:10101400055A0062057800C504A1002704D8008A97
:10102400032001ED027A015102E401B60158021BCA
:1010340001CA027F002F03E2FF7E0345FFB503A927
:10104400FE000000004701C3001001EE0002018E03
:10105400016E616E00696E66006F7666002E000D8B
:101064000A0041637475616C2074656D706572610A
:10107400747572652069733A200041637475616CFC
:10108400204144432076616C75652069733A2000E1
:00000001FF
